{
  "_format": "hh-sol-artifact-1",
  "contractName": "BenchERC1155",
  "sourceName": "contracts/BenchERC1155.sol",
  "abi": [
    {
      "inputs": [],
      "stateMutability": "nonpayable",
      "type": "constructor"
    },
    {
      "anonymous": false,
      "inputs": [
        {
          "indexed": true,
          "internalType": "address",
          "name": "account",
          "type": "address"
        },
        {
          "indexed": true,
          "internalType": "address",
          "name": "operator",
          "type": "address"
        },
        {
          "indexed": false,
          "internalType": "bool",
          "name": "approved",
          "type": "bool"
        }
      ],
      "name": "ApprovalForAll",
      "type": "event"
    },
    {
      "anonymous": false,
      "inputs": [
        {
          "indexed": true,
          "internalType": "address",
          "name": "operator",
          "type": "address"
        },
        {
          "indexed": true,
          "internalType": "address",
          "name": "from",
          "type": "address"
        },
        {
          "indexed": true,
          "internalType": "address",
          "name": "to",
          "type": "address"
        },
        {
          "indexed": false,
          "internalType": "uint256[]",
          "name": "ids",
          "type": "uint256[]"
        },
        {
          "indexed": false,
          "internalType": "uint256[]",
          "name": "values",
          "type": "uint256[]"
        }
      ],
      "name": "TransferBatch",
      "type": "event"
    },
    {
      "anonymous": false,
      "inputs": [
        {
          "indexed": true,
          "internalType": "address",
          "name": "operator",
          "type": "address"
        },
        {
          "indexed": true,
          "internalType": "address",
          "name": "from",
          "type": "address"
        },
        {
          "indexed": true,
          "internalType": "address",
          "name": "to",
          "type": "address"
        },
        {
          "indexed": false,
          "internalType": "uint256",
          "name": "id",
          "type": "uint256"
        },
        {
          "indexed": false,
          "internalType": "uint256",
          "name": "value",
          "type": "uint256"
        }
      ],
      "name": "TransferSingle",
      "type": "event"
    },
    {
      "anonymous": false,
      "inputs": [
        {
          "indexed": false,
          "internalType": "string",
          "name": "value",
          "type": "string"
        },
        {
          "indexed": true,
          "internalType": "uint256",
          "name": "id",
          "type": "uint256"
        }
      ],
      "name": "URI",
      "type": "event"
    },
    {
      "inputs": [
        {
          "internalType": "address",
          "name": "account",
          "type": "address"
        },
        {
          "internalType": "uint256",
          "name": "id",
          "type": "uint256"
        }
      ],
      "name": "balanceOf",
      "outputs": [
        {
          "internalType": "uint256",
          "name": "",
          "type": "uint256"
        }
      ],
      "stateMutability": "view",
      "type": "function"
    },
    {
      "inputs": [
        {
          "internalType": "address[]",
          "name": "accounts",
          "type": "address[]"
        },
        {
          "internalType": "uint256[]",
          "name": "ids",
          "type": "uint256[]"
        }
      ],
      "name": "balanceOfBatch",
      "outputs": [
        {
          "internalType": "uint256[]",
          "name": "",
          "type": "uint256[]"
        }
      ],
      "stateMutability": "view",
      "type": "function"
    },
    {
      "inputs": [
        {
          "internalType": "uint256",
          "name": "balance",
          "type": "uint256"
        }
      ],
      "name": "create",
      "outputs": [
        {
          "internalType": "uint256",
          "name": "",
          "type": "uint256"
        }
      ],
      "stateMutability": "nonpayable",
      "type": "function"
    },
    {
      "inputs": [
        {
          "internalType": "address",
          "name": "account",
          "type": "address"
        },
        {
          "internalType": "address",
          "name": "operator",
          "type": "address"
        }
      ],
      "name": "isApprovedForAll",
      "outputs": [
        {
          "internalType": "bool",
          "name": "",
          "type": "bool"
        }
      ],
      "stateMutability": "view",
      "type": "function"
    },
    {
      "inputs": [
        {
          "internalType": "address",
          "name": "from",
          "type": "address"
        },
        {
          "internalType": "address",
          "name": "to",
          "type": "address"
        },
        {
          "internalType": "uint256[]",
          "name": "ids",
          "type": "uint256[]"
        },
        {
          "internalType": "uint256[]",
          "name": "amounts",
          "type": "uint256[]"
        },
        {
          "internalType": "bytes",
          "name": "data",
          "type": "bytes"
        }
      ],
      "name": "safeBatchTransferFrom",
      "outputs": [],
      "stateMutability": "nonpayable",
      "type": "function"
    },
    {
      "inputs": [
        {
          "internalType": "address",
          "name": "from",
          "type": "address"
        },
        {
          "internalType": "address",
          "name": "to",
          "type": "address"
        },
        {
          "internalType": "uint256",
          "name": "id",
          "type": "uint256"
        },
        {
          "internalType": "uint256",
          "name": "amount",
          "type": "uint256"
        },
        {
          "internalType": "bytes",
          "name": "data",
          "type": "bytes"
        }
      ],
      "name": "safeTransferFrom",
      "outputs": [],
      "stateMutability": "nonpayable",
      "type": "function"
    },
    {
      "inputs": [
        {
          "internalType": "address",
          "name": "operator",
          "type": "address"
        },
        {
          "internalType": "bool",
          "name": "approved",
          "type": "bool"
        }
      ],
      "name": "setApprovalForAll",
      "outputs": [],
      "stateMutability": "nonpayable",
      "type": "function"
    },
    {
      "inputs": [
        {
          "internalType": "bytes4",
          "name": "interfaceId",
          "type": "bytes4"
        }
      ],
      "name": "supportsInterface",
      "outputs": [
        {
          "internalType": "bool",
          "name": "",
          "type": "bool"
        }
      ],
      "stateMutability": "view",
      "type": "function"
    },
    {
      "inputs": [
        {
          "internalType": "uint256",
          "name": "",
          "type": "uint256"
        }
      ],
      "name": "uri",
      "outputs": [
        {
          "internalType": "string",
          "name": "",
          "type": "string"
        }
      ],
      "stateMutability": "view",
      "type": "function"
    }
  ],
  "bytecode": "0x60806040523480156200001157600080fd5b506040518060400160405280600c81526020017f42656e636845524331313535000000000000000000000000000000000000000081525062000059816200006060201b60201c565b5062000191565b8060029080519060200190620000789291906200007c565b5050565b8280546200008a906200012c565b90600052602060002090601f016020900481019282620000ae5760008555620000fa565b82601f10620000c957805160ff1916838001178555620000fa565b82800160010185558215620000fa579182015b82811115620000f9578251825591602001919060010190620000dc565b5b5090506200010991906200010d565b5090565b5b80821115620001285760008160009055506001016200010e565b5090565b600060028204905060018216806200014557607f821691505b602082108114156200015c576200015b62000162565b5b50919050565b7f4e487b7100000000000000000000000000000000000000000000000000000000600052602260045260246000fd5b6128d080620001a16000396000f3fe608060405234801561001057600080fd5b50600436106100925760003560e01c80634e1273f4116100665780634e1273f414610143578063780900dc14610173578063a22cb465146101a3578063e985e9c5146101bf578063f242432a146101ef57610092565b8062fdd58e1461009757806301ffc9a7146100c75780630e89341c146100f75780632eb2c2d614610127575b600080fd5b6100b160048036038101906100ac9190611a6d565b61020b565b6040516100be91906120aa565b60405180910390f35b6100e160048036038101906100dc9190611b15565b6102d4565b6040516100ee9190611f2d565b60405180910390f35b610111600480360381019061010c9190611b67565b6103b6565b60405161011e9190611f48565b60405180910390f35b610141600480360381019061013c91906118e3565b61044a565b005b61015d60048036038101906101589190611aa9565b6104eb565b60405161016a9190611ed4565b60405180910390f35b61018d60048036038101906101889190611b67565b61069c565b60405161019a91906120aa565b60405180910390f35b6101bd60048036038101906101b89190611a31565b6106da565b005b6101d960048036038101906101d491906118a7565b6106f0565b6040516101e69190611f2d565b60405180910390f35b610209600480360381019061020491906119a2565b610784565b005b60008073ffffffffffffffffffffffffffffffffffffffff168373ffffffffffffffffffffffffffffffffffffffff16141561027c576040517f08c379a000000000000000000000000000000000000000000000000000000000815260040161027390611f8a565b60405180910390fd5b60008083815260200190815260200160002060008473ffffffffffffffffffffffffffffffffffffffff1673ffffffffffffffffffffffffffffffffffffffff16815260200190815260200160002054905092915050565b60007fd9b67a26000000000000000000000000000000000000000000000000000000007bffffffffffffffffffffffffffffffffffffffffffffffffffffffff1916827bffffffffffffffffffffffffffffffffffffffffffffffffffffffff1916148061039f57507f0e89341c000000000000000000000000000000000000000000000000000000007bffffffffffffffffffffffffffffffffffffffffffffffffffffffff1916827bffffffffffffffffffffffffffffffffffffffffffffffffffffffff1916145b806103af57506103ae82610825565b5b9050919050565b6060600280546103c590612319565b80601f01602080910402602001604051908101604052809291908181526020018280546103f190612319565b801561043e5780601f106104135761010080835404028352916020019161043e565b820191906000526020600020905b81548152906001019060200180831161042157829003601f168201915b50505050509050919050565b61045261088f565b73ffffffffffffffffffffffffffffffffffffffff168573ffffffffffffffffffffffffffffffffffffffff16148061049857506104978561049261088f565b6106f0565b5b6104d7576040517f08c379a00000000000000000000000000000000000000000000000000000000081526004016104ce90611faa565b60405180910390fd5b6104e48585858585610897565b5050505050565b60608151835114610531576040517f08c379a00000000000000000000000000000000000000000000000000000000081526004016105289061202a565b60405180910390fd5b6000835167ffffffffffffffff811115610574577f4e487b7100000000000000000000000000000000000000000000000000000000600052604160045260246000fd5b6040519080825280602002602001820160405280156105a25781602001602082028036833780820191505090505b50905060005b84518110156106915761063b8582815181106105ed577f4e487b7100000000000000000000000000000000000000000000000000000000600052603260045260246000fd5b602002602001015185838151811061062e577f4e487b7100000000000000000000000000000000000000000000000000000000600052603260045260246000fd5b602002602001015161020b565b828281518110610674577f4e487b7100000000000000000000000000000000000000000000000000000000600052603260045260246000fd5b6020026020010181815250508061068a9061237c565b90506105a8565b508091505092915050565b60006106a86003610c05565b60006106b46003610c1b565b90506106d133828560405180602001604052806000815250610c29565b80915050919050565b6106ec6106e561088f565b8383610dda565b5050565b6000600160008473ffffffffffffffffffffffffffffffffffffffff1673ffffffffffffffffffffffffffffffffffffffff16815260200190815260200160002060008373ffffffffffffffffffffffffffffffffffffffff1673ffffffffffffffffffffffffffffffffffffffff16815260200190815260200160002060009054906101000a900460ff16905092915050565b61078c61088f565b73ffffffffffffffffffffffffffffffffffffffff168573ffffffffffffffffffffffffffffffffffffffff1614806107d257506107d1856107cc61088f565b6106f0565b5b610811576040517f08c379a000000000000000000000000000000000000000000000000000000000815260040161080890611faa565b60405180910390fd5b61081e8585858585610f47565b5050505050565b60007f01ffc9a7000000000000000000000000000000000000000000000000000000007bffffffffffffffffffffffffffffffffffffffffffffffffffffffff1916827bffffffffffffffffffffffffffffffffffffffffffffffffffffffff1916149050919050565b600033905090565b81518351146108db576040517f08c379a00000000000000000000000000000000000000000000000000000000081526004016108d29061204a565b60405180910390fd5b600073ffffffffffffffffffffffffffffffffffffffff168473ffffffffffffffffffffffffffffffffffffffff16141561094b576040517f08c379a000000000000000000000000000000000000000000000000000000000815260040161094290611fca565b60405180910390fd5b600061095561088f565b90506109658187878787876111e3565b60005b8451811015610b625760008582815181106109ac577f4e487b7100000000000000000000000000000000000000000000000000000000600052603260045260246000fd5b6020026020010151905060008583815181106109f1577f4e487b7100000000000000000000000000000000000000000000000000000000600052603260045260246000fd5b60200260200101519050600080600084815260200190815260200160002060008b73ffffffffffffffffffffffffffffffffffffffff1673ffffffffffffffffffffffffffffffffffffffff16815260200190815260200160002054905081811015610a92576040517f08c379a0000000000000000000000000000000000000000000000000000000008152600401610a8990611fea565b60405180910390fd5b81810360008085815260200190815260200160002060008c73ffffffffffffffffffffffffffffffffffffffff1673ffffffffffffffffffffffffffffffffffffffff168152602001908152602001600020819055508160008085815260200190815260200160002060008b73ffffffffffffffffffffffffffffffffffffffff1673ffffffffffffffffffffffffffffffffffffffff1681526020019081526020016000206000828254610b47919061220d565b9250508190555050505080610b5b9061237c565b9050610968565b508473ffffffffffffffffffffffffffffffffffffffff168673ffffffffffffffffffffffffffffffffffffffff168273ffffffffffffffffffffffffffffffffffffffff167f4a39dc06d4c0dbc64b70af90fd698a233a518aa5d07e595d983b8c0526c8f7fb8787604051610bd9929190611ef6565b60405180910390a4610bef8187878787876111eb565b610bfd8187878787876111f3565b505050505050565b6001816000016000828254019250508190555050565b600081600001549050919050565b600073ffffffffffffffffffffffffffffffffffffffff168473ffffffffffffffffffffffffffffffffffffffff161415610c99576040517f08c379a0000000000000000000000000000000000000000000000000000000008152600401610c909061206a565b60405180910390fd5b6000610ca361088f565b90506000610cb0856113da565b90506000610cbd856113da565b9050610cce836000898585896111e3565b8460008088815260200190815260200160002060008973ffffffffffffffffffffffffffffffffffffffff1673ffffffffffffffffffffffffffffffffffffffff1681526020019081526020016000206000828254610d2d919061220d565b925050819055508673ffffffffffffffffffffffffffffffffffffffff16600073ffffffffffffffffffffffffffffffffffffffff168473ffffffffffffffffffffffffffffffffffffffff167fc3d58168c5ae7397731d063d5bbf3d657854427343f4c083240f7aacaa2d0f628989604051610dab9291906120c5565b60405180910390a4610dc2836000898585896111eb565b610dd1836000898989896114a0565b50505050505050565b8173ffffffffffffffffffffffffffffffffffffffff168373ffffffffffffffffffffffffffffffffffffffff161415610e49576040517f08c379a0000000000000000000000000000000000000000000000000000000008152600401610e409061200a565b60405180910390fd5b80600160008573ffffffffffffffffffffffffffffffffffffffff1673ffffffffffffffffffffffffffffffffffffffff16815260200190815260200160002060008473ffffffffffffffffffffffffffffffffffffffff1673ffffffffffffffffffffffffffffffffffffffff16815260200190815260200160002060006101000a81548160ff0219169083151502179055508173ffffffffffffffffffffffffffffffffffffffff168373ffffffffffffffffffffffffffffffffffffffff167f17307eab39ab6107e8899845ad3d59bd9653f200f220920489ca2b5937696c3183604051610f3a9190611f2d565b60405180910390a3505050565b600073ffffffffffffffffffffffffffffffffffffffff168473ffffffffffffffffffffffffffffffffffffffff161415610fb7576040517f08c379a0000000000000000000000000000000000000000000000000000000008152600401610fae90611fca565b60405180910390fd5b6000610fc161088f565b90506000610fce856113da565b90506000610fdb856113da565b9050610feb8389898585896111e3565b600080600088815260200190815260200160002060008a73ffffffffffffffffffffffffffffffffffffffff1673ffffffffffffffffffffffffffffffffffffffff16815260200190815260200160002054905085811015611082576040517f08c379a000000000000000000000000000000000000000000000000000000000815260040161107990611fea565b60405180910390fd5b85810360008089815260200190815260200160002060008b73ffffffffffffffffffffffffffffffffffffffff1673ffffffffffffffffffffffffffffffffffffffff168152602001908152602001600020819055508560008089815260200190815260200160002060008a73ffffffffffffffffffffffffffffffffffffffff1673ffffffffffffffffffffffffffffffffffffffff1681526020019081526020016000206000828254611137919061220d565b925050819055508773ffffffffffffffffffffffffffffffffffffffff168973ffffffffffffffffffffffffffffffffffffffff168573ffffffffffffffffffffffffffffffffffffffff167fc3d58168c5ae7397731d063d5bbf3d657854427343f4c083240f7aacaa2d0f628a8a6040516111b49291906120c5565b60405180910390a46111ca848a8a86868a6111eb565b6111d8848a8a8a8a8a6114a0565b505050505050505050565b505050505050565b505050505050565b6112128473ffffffffffffffffffffffffffffffffffffffff16611687565b156113d2578373ffffffffffffffffffffffffffffffffffffffff1663bc197c8187878686866040518663ffffffff1660e01b8152600401611258959493929190611e12565b602060405180830381600087803b15801561127257600080fd5b505af19250505080156112a357506040513d601f19601f820116820180604052508101906112a09190611b3e565b60015b611349576112af612452565b806308c379a0141561130c57506112c46127a8565b806112cf575061130e565b806040517f08c379a00000000000000000000000000000000000000000000000000000000081526004016113039190611f48565b60405180910390fd5b505b6040517f08c379a00000000000000000000000000000000000000000000000000000000081526004016113409061208a565b60405180910390fd5b63bc197c8160e01b7bffffffffffffffffffffffffffffffffffffffffffffffffffffffff1916817bffffffffffffffffffffffffffffffffffffffffffffffffffffffff1916146113d0576040517f08c379a00000000000000000000000000000000000000000000000000000000081526004016113c790611f6a565b60405180910390fd5b505b505050505050565b60606000600167ffffffffffffffff81111561141f577f4e487b7100000000000000000000000000000000000000000000000000000000600052604160045260246000fd5b60405190808252806020026020018201604052801561144d5781602001602082028036833780820191505090505b509050828160008151811061148b577f4e487b7100000000000000000000000000000000000000000000000000000000600052603260045260246000fd5b60200260200101818152505080915050919050565b6114bf8473ffffffffffffffffffffffffffffffffffffffff16611687565b1561167f578373ffffffffffffffffffffffffffffffffffffffff1663f23a6e6187878686866040518663ffffffff1660e01b8152600401611505959493929190611e7a565b602060405180830381600087803b15801561151f57600080fd5b505af192505050801561155057506040513d601f19601f8201168201806040525081019061154d9190611b3e565b60015b6115f65761155c612452565b806308c379a014156115b957506115716127a8565b8061157c57506115bb565b806040517f08c379a00000000000000000000000000000000000000000000000000000000081526004016115b09190611f48565b60405180910390fd5b505b6040517f08c379a00000000000000000000000000000000000000000000000000000000081526004016115ed9061208a565b60405180910390fd5b63f23a6e6160e01b7bffffffffffffffffffffffffffffffffffffffffffffffffffffffff1916817bffffffffffffffffffffffffffffffffffffffffffffffffffffffff19161461167d576040517f08c379a000000000000000000000000000000000000000000000000000000000815260040161167490611f6a565b60405180910390fd5b505b505050505050565b6000808273ffffffffffffffffffffffffffffffffffffffff163b119050919050565b60006116bd6116b884612113565b6120ee565b905080838252602082019050828560208602820111156116dc57600080fd5b60005b8581101561170c57816116f288826117c0565b8452602084019350602083019250506001810190506116df565b5050509392505050565b60006117296117248461213f565b6120ee565b9050808382526020820190508285602086028201111561174857600080fd5b60005b85811015611778578161175e8882611892565b84526020840193506020830192505060018101905061174b565b5050509392505050565b60006117956117908461216b565b6120ee565b9050828152602081018484840111156117ad57600080fd5b6117b88482856122d7565b509392505050565b6000813590506117cf8161283e565b92915050565b600082601f8301126117e657600080fd5b81356117f68482602086016116aa565b91505092915050565b600082601f83011261181057600080fd5b8135611820848260208601611716565b91505092915050565b60008135905061183881612855565b92915050565b60008135905061184d8161286c565b92915050565b6000815190506118628161286c565b92915050565b600082601f83011261187957600080fd5b8135611889848260208601611782565b91505092915050565b6000813590506118a181612883565b92915050565b600080604083850312156118ba57600080fd5b60006118c8858286016117c0565b92505060206118d9858286016117c0565b9150509250929050565b600080600080600060a086880312156118fb57600080fd5b6000611909888289016117c0565b955050602061191a888289016117c0565b945050604086013567ffffffffffffffff81111561193757600080fd5b611943888289016117ff565b935050606086013567ffffffffffffffff81111561196057600080fd5b61196c888289016117ff565b925050608086013567ffffffffffffffff81111561198957600080fd5b61199588828901611868565b9150509295509295909350565b600080600080600060a086880312156119ba57600080fd5b60006119c8888289016117c0565b95505060206119d9888289016117c0565b94505060406119ea88828901611892565b93505060606119fb88828901611892565b925050608086013567ffffffffffffffff811115611a1857600080fd5b611a2488828901611868565b9150509295509295909350565b60008060408385031215611a4457600080fd5b6000611a52858286016117c0565b9250506020611a6385828601611829565b9150509250929050565b60008060408385031215611a8057600080fd5b6000611a8e858286016117c0565b9250506020611a9f85828601611892565b9150509250929050565b60008060408385031215611abc57600080fd5b600083013567ffffffffffffffff811115611ad657600080fd5b611ae2858286016117d5565b925050602083013567ffffffffffffffff811115611aff57600080fd5b611b0b858286016117ff565b9150509250929050565b600060208284031215611b2757600080fd5b6000611b358482850161183e565b91505092915050565b600060208284031215611b5057600080fd5b6000611b5e84828501611853565b91505092915050565b600060208284031215611b7957600080fd5b6000611b8784828501611892565b91505092915050565b6000611b9c8383611df4565b60208301905092915050565b611bb181612263565b82525050565b6000611bc2826121ac565b611bcc81856121da565b9350611bd78361219c565b8060005b83811015611c08578151611bef8882611b90565b9750611bfa836121cd565b925050600181019050611bdb565b5085935050505092915050565b611c1e81612275565b82525050565b6000611c2f826121b7565b611c3981856121eb565b9350611c498185602086016122e6565b611c5281612474565b840191505092915050565b6000611c68826121c2565b611c7281856121fc565b9350611c828185602086016122e6565b611c8b81612474565b840191505092915050565b6000611ca36028836121fc565b9150611cae82612492565b604082019050919050565b6000611cc6602a836121fc565b9150611cd1826124e1565b604082019050919050565b6000611ce9602e836121fc565b9150611cf482612530565b604082019050919050565b6000611d0c6025836121fc565b9150611d178261257f565b604082019050919050565b6000611d2f602a836121fc565b9150611d3a826125ce565b604082019050919050565b6000611d526029836121fc565b9150611d5d8261261d565b604082019050919050565b6000611d756029836121fc565b9150611d808261266c565b604082019050919050565b6000611d986028836121fc565b9150611da3826126bb565b604082019050919050565b6000611dbb6021836121fc565b9150611dc68261270a565b604082019050919050565b6000611dde6034836121fc565b9150611de982612759565b604082019050919050565b611dfd816122cd565b82525050565b611e0c816122cd565b82525050565b600060a082019050611e276000830188611ba8565b611e346020830187611ba8565b8181036040830152611e468186611bb7565b90508181036060830152611e5a8185611bb7565b90508181036080830152611e6e8184611c24565b90509695505050505050565b600060a082019050611e8f6000830188611ba8565b611e9c6020830187611ba8565b611ea96040830186611e03565b611eb66060830185611e03565b8181036080830152611ec88184611c24565b90509695505050505050565b60006020820190508181036000830152611eee8184611bb7565b905092915050565b60006040820190508181036000830152611f108185611bb7565b90508181036020830152611f248184611bb7565b90509392505050565b6000602082019050611f426000830184611c15565b92915050565b60006020820190508181036000830152611f628184611c5d565b905092915050565b60006020820190508181036000830152611f8381611c96565b9050919050565b60006020820190508181036000830152611fa381611cb9565b9050919050565b60006020820190508181036000830152611fc381611cdc565b9050919050565b60006020820190508181036000830152611fe381611cff565b9050919050565b6000602082019050818103600083015261200381611d22565b9050919050565b6000602082019050818103600083015261202381611d45565b9050919050565b6000602082019050818103600083015261204381611d68565b9050919050565b6000602082019050818103600083015261206381611d8b565b9050919050565b6000602082019050818103600083015261208381611dae565b9050919050565b600060208201905081810360008301526120a381611dd1565b9050919050565b60006020820190506120bf6000830184611e03565b92915050565b60006040820190506120da6000830185611e03565b6120e76020830184611e03565b9392505050565b60006120f8612109565b9050612104828261234b565b919050565b6000604051905090565b600067ffffffffffffffff82111561212e5761212d612423565b5b602082029050602081019050919050565b600067ffffffffffffffff82111561215a57612159612423565b5b602082029050602081019050919050565b600067ffffffffffffffff82111561218657612185612423565b5b61218f82612474565b9050602081019050919050565b6000819050602082019050919050565b600081519050919050565b600081519050919050565b600081519050919050565b6000602082019050919050565b600082825260208201905092915050565b600082825260208201905092915050565b600082825260208201905092915050565b6000612218826122cd565b9150612223836122cd565b9250827fffffffffffffffffffffffffffffffffffffffffffffffffffffffffffffffff03821115612258576122576123c5565b5b828201905092915050565b600061226e826122ad565b9050919050565b60008115159050919050565b60007fffffffff0000000000000000000000000000000000000000000000000000000082169050919050565b600073ffffffffffffffffffffffffffffffffffffffff82169050919050565b6000819050919050565b82818337600083830152505050565b60005b838110156123045780820151818401526020810190506122e9565b83811115612313576000848401525b50505050565b6000600282049050600182168061233157607f821691505b60208210811415612345576123446123f4565b5b50919050565b61235482612474565b810181811067ffffffffffffffff8211171561237357612372612423565b5b80604052505050565b6000612387826122cd565b91507fffffffffffffffffffffffffffffffffffffffffffffffffffffffffffffffff8214156123ba576123b96123c5565b5b600182019050919050565b7f4e487b7100000000000000000000000000000000000000000000000000000000600052601160045260246000fd5b7f4e487b7100000000000000000000000000000000000000000000000000000000600052602260045260246000fd5b7f4e487b7100000000000000000000000000000000000000000000000000000000600052604160045260246000fd5b600060033d11156124715760046000803e61246e600051612485565b90505b90565b6000601f19601f8301169050919050565b60008160e01c9050919050565b7f455243313135353a204552433131353552656365697665722072656a6563746560008201527f6420746f6b656e73000000000000000000000000000000000000000000000000602082015250565b7f455243313135353a2061646472657373207a65726f206973206e6f742061207660008201527f616c6964206f776e657200000000000000000000000000000000000000000000602082015250565b7f455243313135353a2063616c6c6572206973206e6f7420746f6b656e206f776e60008201527f6572206f7220617070726f766564000000000000000000000000000000000000602082015250565b7f455243313135353a207472616e7366657220746f20746865207a65726f20616460008201527f6472657373000000000000000000000000000000000000000000000000000000602082015250565b7f455243313135353a20696e73756666696369656e742062616c616e636520666f60008201527f72207472616e7366657200000000000000000000000000000000000000000000602082015250565b7f455243313135353a2073657474696e6720617070726f76616c2073746174757360008201527f20666f722073656c660000000000000000000000000000000000000000000000602082015250565b7f455243313135353a206163636f756e747320616e6420696473206c656e67746860008201527f206d69736d617463680000000000000000000000000000000000000000000000602082015250565b7f455243313135353a2069647320616e6420616d6f756e7473206c656e6774682060008201527f6d69736d61746368000000000000000000000000000000000000000000000000602082015250565b7f455243313135353a206d696e7420746f20746865207a65726f2061646472657360008201527f7300000000000000000000000000000000000000000000000000000000000000602082015250565b7f455243313135353a207472616e7366657220746f206e6f6e2d4552433131353560008201527f526563656976657220696d706c656d656e746572000000000000000000000000602082015250565b600060443d10156127b85761283b565b6127c0612109565b60043d036004823e80513d602482011167ffffffffffffffff821117156127e857505061283b565b808201805167ffffffffffffffff811115612806575050505061283b565b80602083010160043d03850181111561282357505050505061283b565b6128328260200185018661234b565b82955050505050505b90565b61284781612263565b811461285257600080fd5b50565b61285e81612275565b811461286957600080fd5b50565b61287581612281565b811461288057600080fd5b50565b61288c816122cd565b811461289757600080fd5b5056fea2646970667358221220ee7f26153066dca0cc8157cb2ef418fc177b821e2f48b951f2af3ff10edebadb64736f6c63430008010033",
  "linkReferences": {},
  "deployedLinkReferences": {}
}