{
  "_format": "hh-sol-artifact-1",
  "contractName": "Computation",
  "sourceName": "contracts/Computation.sol",
  "abi": [
    {
      "inputs": [],
      "stateMutability": "nonpayable",
      "type": "constructor"
    },
    {
      "inputs": [
        {
          "internalType": "int32",
          "name": "x",
          "type": "int32"
        }
      ],
      "name": "oddProduct",
      "outputs": [
        {
          "internalType": "int64",
          "name": "",
          "type": "int64"
        }
      ],
      "stateMutability": "pure",
      "type": "function"
    },
    {
      "inputs": [
        {
          "internalType": "int32",
          "name": "x",
          "type": "int32"
        }
      ],
      "name": "triangleNumber",
      "outputs": [
        {
          "internalType": "int64",
          "name": "",
          "type": "int64"
        }
      ],
      "stateMutability": "pure",
      "type": "function"
    }
  ],
  "bytecode": "0x608060405234801561001057600080fd5b5061024c806100206000396000f3fe608060405234801561001057600080fd5b50600436106100365760003560e01c80631ad730ef1461003b5780637b96f0e01461006b575b600080fd5b61005560048036038101906100509190610136565b61009b565b604051610062919061016e565b60405180910390f35b61008560048036038101906100809190610136565b6100db565b604051610092919061016e565b60405180910390f35b600080600090506000600190505b8360030b8160030b136100d1578060030b8201915080806100c9906101a3565b9150506100a9565b5080915050919050565b600080600190506000600190505b8360030b8160030b13610117576001816002020360030b82029150808061010f906101a3565b9150506100e9565b5080915050919050565b600081359050610130816101ff565b92915050565b60006020828403121561014857600080fd5b600061015684828501610121565b91505092915050565b61016881610196565b82525050565b6000602082019050610183600083018461015f565b92915050565b60008160030b9050919050565b60008160070b9050919050565b60006101ae82610189565b9150637fffffff8214156101c5576101c46101d0565b5b600182019050919050565b7f4e487b7100000000000000000000000000000000000000000000000000000000600052601160045260246000fd5b61020881610189565b811461021357600080fd5b5056fea26469706673582212204bfdf671dae3b63cc429a2f6ad926040d0c4f9504dccb337496531097a81bc7264736f6c63430008010033",
  "linkReferences": {},
  "deployedLinkReferences": {}
}