{
  "_format": "hh-sol-artifact-1",
  "contractName": "flipper",
  "sourceName": "contracts/flipper.sol",
  "abi": [
    {
      "inputs": [
        {
          "internalType": "bool",
          "name": "initvalue",
          "type": "bool"
        }
      ],
      "stateMutability": "nonpayable",
      "type": "constructor"
    },
    {
      "inputs": [],
      "name": "flip",
      "outputs": [],
      "stateMutability": "nonpayable",
      "type": "function"
    },
    {
      "inputs": [],
      "name": "get",
      "outputs": [
        {
          "internalType": "bool",
          "name": "",
          "type": "bool"
        }
      ],
      "stateMutability": "view",
      "type": "function"
    }
  ],
  "bytecode": "0x608060405234801561001057600080fd5b506040516101c13803806101c183398181016040528101906100329190610066565b806000806101000a81548160ff021916908315150217905550506100b2565b6000815190506100608161009b565b92915050565b60006020828403121561007857600080fd5b600061008684828501610051565b91505092915050565b60008115159050919050565b6100a48161008f565b81146100af57600080fd5b50565b610100806100c16000396000f3fe6080604052348015600f57600080fd5b506004361060325760003560e01c80636d4ce63c146037578063cde4efa9146051575b600080fd5b603d6059565b6040516048919060a5565b60405180910390f35b6057606f565b005b60008060009054906101000a900460ff16905090565b60008054906101000a900460ff16156000806101000a81548160ff021916908315150217905550565b609f8160be565b82525050565b600060208201905060b860008301846098565b92915050565b6000811515905091905056fea2646970667358221220839b7127425cadc978fdae85c236303c56c2ce2e9ea2c4048fe9488c6187b87964736f6c63430008010033",
  "linkReferences": {},
  "deployedLinkReferences": {}
}