{
  "_format": "hh-sol-artifact-1",
  "contractName": "Storage",
  "sourceName": "contracts/Storage.sol",
  "abi": [
    {
      "inputs": [],
      "stateMutability": "nonpayable",
      "type": "constructor"
    },
    {
      "inputs": [
        {
          "internalType": "address",
          "name": "account",
          "type": "address"
        },
        {
          "internalType": "int32",
          "name": "count",
          "type": "int32"
        }
      ],
      "name": "read",
      "outputs": [],
      "stateMutability": "view",
      "type": "function"
    },
    {
      "inputs": [
        {
          "internalType": "address",
          "name": "account",
          "type": "address"
        },
        {
          "internalType": "int32",
          "name": "count",
          "type": "int32"
        }
      ],
      "name": "readWrite",
      "outputs": [],
      "stateMutability": "nonpayable",
      "type": "function"
    },
    {
      "inputs": [
        {
          "internalType": "address",
          "name": "account",
          "type": "address"
        },
        {
          "internalType": "int32",
          "name": "count",
          "type": "int32"
        }
      ],
      "name": "write",
      "outputs": [],
      "stateMutability": "nonpayable",
      "type": "function"
    }
  ],
  "bytecode": "0x608060405234801561001057600080fd5b506103be806100206000396000f3fe608060405234801561001057600080fd5b50600436106100415760003560e01c806391f05dd514610046578063a7269efc14610062578063a8a4189d1461007e575b600080fd5b610060600480360381019061005b9190610223565b61009a565b005b61007c60048036038101906100779190610223565b61010c565b005b61009860048036038101906100939190610223565b61018e565b005b6000600190505b8160030b8160030b1361010757620f42406000808573ffffffffffffffffffffffffffffffffffffffff1673ffffffffffffffffffffffffffffffffffffffff1681526020019081526020016000208190555080806100ff906102fe565b9150506100a1565b505050565b6000600190505b8160030b8160030b136101895760016000808573ffffffffffffffffffffffffffffffffffffffff1673ffffffffffffffffffffffffffffffffffffffff168152602001908152602001600020600082825461016f919061025f565b925050819055508080610181906102fe565b915050610113565b505050565b6000600190505b8160030b8160030b136101f4576000808473ffffffffffffffffffffffffffffffffffffffff1673ffffffffffffffffffffffffffffffffffffffff1681526020019081526020016000205080806101ec906102fe565b915050610195565b505050565b6000813590506102088161035a565b92915050565b60008135905061021d81610371565b92915050565b6000806040838503121561023657600080fd5b6000610244858286016101f9565b92505060206102558582860161020e565b9150509250929050565b600061026a826102f4565b9150610275836102f4565b9250827fffffffffffffffffffffffffffffffffffffffffffffffffffffffffffffffff038211156102aa576102a961032b565b5b828201905092915050565b60006102c0826102d4565b9050919050565b60008160030b9050919050565b600073ffffffffffffffffffffffffffffffffffffffff82169050919050565b6000819050919050565b6000610309826102c7565b9150637fffffff8214156103205761031f61032b565b5b600182019050919050565b7f4e487b7100000000000000000000000000000000000000000000000000000000600052601160045260246000fd5b610363816102b5565b811461036e57600080fd5b50565b61037a816102c7565b811461038557600080fd5b5056fea264697066735822122018f41360e7424f8634c357d99252fd69c1de9a98fa64d0a6da240ac231afa25364736f6c63430008010033",
  "linkReferences": {},
  "deployedLinkReferences": {}
}