{"contracts/Computation.sol":{"Computation":{"abi":[{"inputs":[],"stateMutability":"nonpayable","type":"constructor"},{"inputs":[{"internalType":"int32","name":"x","type":"int32"}],"name":"oddProduct","outputs":[{"internalType":"int64","name":"","type":"int64"}],"stateMutability":"pure","type":"function"},{"inputs":[{"internalType":"int32","name":"x","type":"int32"}],"name":"triangleNumber","outputs":[{"internalType":"int64","name":"","type":"int64"}],"stateMutability":"pure","type":"function"}],"evm":{"bytecode":{"linkReferences":{},"object":"608060405234801561001057600080fd5b5061024c806100206000396000f3fe608060405234801561001057600080fd5b50600436106100365760003560e01c80631ad730ef1461003b5780637b96f0e01461006b575b600080fd5b61005560048036038101906100509190610136565b61009b565b604051610062919061016e565b60405180910390f35b61008560048036038101906100809190610136565b6100db565b604051610092919061016e565b60405180910390f35b600080600090506000600190505b8360030b8160030b136100d1578060030b8201915080806100c9906101a3565b9150506100a9565b5080915050919050565b600080600190506000600190505b8360030b8160030b13610117576001816002020360030b82029150808061010f906101a3565b9150506100e9565b5080915050919050565b600081359050610130816101ff565b92915050565b60006020828403121561014857600080fd5b600061015684828501610121565b91505092915050565b61016881610196565b82525050565b6000602082019050610183600083018461015f565b92915050565b60008160030b9050919050565b60008160070b9050919050565b60006101ae82610189565b9150637fffffff8214156101c5576101c46101d0565b5b600182019050919050565b7f4e487b7100000000000000000000000000000000000000000000000000000000600052601160045260246000fd5b61020881610189565b811461021357600080fd5b5056fea26469706673582212204bfdf671dae3b63cc429a2f6ad926040d0c4f9504dccb337496531097a81bc7264736f6c63430008010033","opcodes":"PUSH1 0x80 PUSH1 0x40 MSTORE CALLVALUE DUP1 ISZERO PUSH2 0x10 JUMPI PUSH1 0x0 DUP1 REVERT JUMPDEST POP PUSH2 0x24C DUP1 PUSH2 0x20 PUSH1 0x0 CODECOPY PUSH1 0x0 RETURN INVALID PUSH1 0x80 PUSH1 0x40 MSTORE CALLVALUE DUP1 ISZERO PUSH2 0x10 JUMPI PUSH1 0x0 DUP1 REVERT JUMPDEST POP PUSH1 0x4 CALLDATASIZE LT PUSH2 0x36 JUMPI PUSH1 0x0 CALLDATALOAD PUSH1 0xE0 SHR DUP1 PUSH4 0x1AD730EF EQ PUSH2 0x3B JUMPI DUP1 PUSH4 0x7B96F0E0 EQ PUSH2 0x6B JUMPI JUMPDEST PUSH1 0x0 DUP1 REVERT JUMPDEST PUSH2 0x55 PUSH1 0x4 DUP1 CALLDATASIZE SUB DUP2 ADD SWAP1 PUSH2 0x50 SWAP2 SWAP1 PUSH2 0x136 JUMP JUMPDEST PUSH2 0x9B JUMP JUMPDEST PUSH1 0x40 MLOAD PUSH2 0x62 SWAP2 SWAP1 PUSH2 0x16E JUMP JUMPDEST PUSH1 0x40 MLOAD DUP1 SWAP2 SUB SWAP1 RETURN JUMPDEST PUSH2 0x85 PUSH1 0x4 DUP1 CALLDATASIZE SUB DUP2 ADD SWAP1 PUSH2 0x80 SWAP2 SWAP1 PUSH2 0x136 JUMP JUMPDEST PUSH2 0xDB JUMP JUMPDEST PUSH1 0x40 MLOAD PUSH2 0x92 SWAP2 SWAP1 PUSH2 0x16E JUMP JUMPDEST PUSH1 0x40 MLOAD DUP1 SWAP2 SUB SWAP1 RETURN JUMPDEST PUSH1 0x0 DUP1 PUSH1 0x0 SWAP1 POP PUSH1 0x0 PUSH1 0x1 SWAP1 POP JUMPDEST DUP4 PUSH1 0x3 SIGNEXTEND DUP2 PUSH1 0x3 SIGNEXTEND SGT PUSH2 0xD1 JUMPI DUP1 PUSH1 0x3 SIGNEXTEND DUP3 ADD SWAP2 POP DUP1 DUP1 PUSH2 0xC9 SWAP1 PUSH2 0x1A3 JUMP JUMPDEST SWAP2 POP POP PUSH2 0xA9 JUMP JUMPDEST POP DUP1 SWAP2 POP POP SWAP2 SWAP1 POP JUMP JUMPDEST PUSH1 0x0 DUP1 PUSH1 0x1 SWAP1 POP PUSH1 0x0 PUSH1 0x1 SWAP1 POP JUMPDEST DUP4 PUSH1 0x3 SIGNEXTEND DUP2 PUSH1 0x3 SIGNEXTEND SGT PUSH2 0x117 JUMPI PUSH1 0x1 DUP2 PUSH1 0x2 MUL SUB PUSH1 0x3 SIGNEXTEND DUP3 MUL SWAP2 POP DUP1 DUP1 PUSH2 0x10F SWAP1 PUSH2 0x1A3 JUMP JUMPDEST SWAP2 POP POP PUSH2 0xE9 JUMP JUMPDEST POP DUP1 SWAP2 POP POP SWAP2 SWAP1 POP JUMP JUMPDEST PUSH1 0x0 DUP2 CALLDATALOAD SWAP1 POP PUSH2 0x130 DUP2 PUSH2 0x1FF JUMP JUMPDEST SWAP3 SWAP2 POP POP JUMP JUMPDEST PUSH1 0x0 PUSH1 0x20 DUP3 DUP5 SUB SLT ISZERO PUSH2 0x148 JUMPI PUSH1 0x0 DUP1 REVERT JUMPDEST PUSH1 0x0 PUSH2 0x156 DUP5 DUP3 DUP6 ADD PUSH2 0x121 JUMP JUMPDEST SWAP2 POP POP SWAP3 SWAP2 POP POP JUMP JUMPDEST PUSH2 0x168 DUP2 PUSH2 0x196 JUMP JUMPDEST DUP3 MSTORE POP POP JUMP JUMPDEST PUSH1 0x0 PUSH1 0x20 DUP3 ADD SWAP1 POP PUSH2 0x183 PUSH1 0x0 DUP4 ADD DUP5 PUSH2 0x15F JUMP JUMPDEST SWAP3 SWAP2 POP POP JUMP JUMPDEST PUSH1 0x0 DUP2 PUSH1 0x3 SIGNEXTEND SWAP1 POP SWAP2 SWAP1 POP JUMP JUMPDEST PUSH1 0x0 DUP2 PUSH1 0x7 SIGNEXTEND SWAP1 POP SWAP2 SWAP1 POP JUMP JUMPDEST PUSH1 0x0 PUSH2 0x1AE DUP3 PUSH2 0x189 JUMP JUMPDEST SWAP2 POP PUSH4 0x7FFFFFFF DUP3 EQ ISZERO PUSH2 0x1C5 JUMPI PUSH2 0x1C4 PUSH2 0x1D0 JUMP JUMPDEST JUMPDEST PUSH1 0x1 DUP3 ADD SWAP1 POP SWAP2 SWAP1 POP JUMP JUMPDEST PUSH32 0x4E487B7100000000000000000000000000000000000000000000000000000000 PUSH1 0x0 MSTORE PUSH1 0x11 PUSH1 0x4 MSTORE PUSH1 0x24 PUSH1 0x0 REVERT JUMPDEST PUSH2 0x208 DUP2 PUSH2 0x189 JUMP JUMPDEST DUP2 EQ PUSH2 0x213 JUMPI PUSH1 0x0 DUP1 REVERT JUMPDEST POP JUMP INVALID LOG2 PUSH5 0x6970667358 0x22 SLT KECCAK256 0x4B REVERT 0xF6 PUSH18 0xDAE3B63CC429A2F6AD926040D0C4F9504DCC 0xB3 CALLDATACOPY 0x49 PUSH6 0x31097A81BC72 PUSH5 0x736F6C6343 STOP ADDMOD ADD STOP CALLER "},"methodIdentifiers":{"oddProduct(int32)":"7b96f0e0","triangleNumber(int32)":"1ad730ef"}}}}}