{"contracts/Storage.sol":{"Storage":{"abi":[{"inputs":[],"stateMutability":"nonpayable","type":"constructor"},{"inputs":[{"internalType":"address","name":"account","type":"address"},{"internalType":"int32","name":"count","type":"int32"}],"name":"read","outputs":[],"stateMutability":"view","type":"function"},{"inputs":[{"internalType":"address","name":"account","type":"address"},{"internalType":"int32","name":"count","type":"int32"}],"name":"readWrite","outputs":[],"stateMutability":"nonpayable","type":"function"},{"inputs":[{"internalType":"address","name":"account","type":"address"},{"internalType":"int32","name":"count","type":"int32"}],"name":"write","outputs":[],"stateMutability":"nonpayable","type":"function"}],"evm":{"bytecode":{"linkReferences":{},"object":"608060405234801561001057600080fd5b506103be806100206000396000f3fe608060405234801561001057600080fd5b50600436106100415760003560e01c806391f05dd514610046578063a7269efc14610062578063a8a4189d1461007e575b600080fd5b610060600480360381019061005b9190610223565b61009a565b005b61007c60048036038101906100779190610223565b61010c565b005b61009860048036038101906100939190610223565b61018e565b005b6000600190505b8160030b8160030b1361010757620f42406000808573ffffffffffffffffffffffffffffffffffffffff1673ffffffffffffffffffffffffffffffffffffffff1681526020019081526020016000208190555080806100ff906102fe565b9150506100a1565b505050565b6000600190505b8160030b8160030b136101895760016000808573ffffffffffffffffffffffffffffffffffffffff1673ffffffffffffffffffffffffffffffffffffffff168152602001908152602001600020600082825461016f919061025f565b925050819055508080610181906102fe565b915050610113565b505050565b6000600190505b8160030b8160030b136101f4576000808473ffffffffffffffffffffffffffffffffffffffff1673ffffffffffffffffffffffffffffffffffffffff1681526020019081526020016000205080806101ec906102fe565b915050610195565b505050565b6000813590506102088161035a565b92915050565b60008135905061021d81610371565b92915050565b6000806040838503121561023657600080fd5b6000610244858286016101f9565b92505060206102558582860161020e565b9150509250929050565b600061026a826102f4565b9150610275836102f4565b9250827fffffffffffffffffffffffffffffffffffffffffffffffffffffffffffffffff038211156102aa576102a961032b565b5b828201905092915050565b60006102c0826102d4565b9050919050565b60008160030b9050919050565b600073ffffffffffffffffffffffffffffffffffffffff82169050919050565b6000819050919050565b6000610309826102c7565b9150637fffffff8214156103205761031f61032b565b5b600182019050919050565b7f4e487b7100000000000000000000000000000000000000000000000000000000600052601160045260246000fd5b610363816102b5565b811461036e57600080fd5b50565b61037a816102c7565b811461038557600080fd5b5056fea264697066735822122018f41360e7424f8634c357d99252fd69c1de9a98fa64d0a6da240ac231afa25364736f6c63430008010033","opcodes":"PUSH1 0x80 PUSH1 0x40 MSTORE CALLVALUE DUP1 ISZERO PUSH2 0x10 JUMPI PUSH1 0x0 DUP1 REVERT JUMPDEST POP PUSH2 0x3BE DUP1 PUSH2 0x20 PUSH1 0x0 CODECOPY PUSH1 0x0 RETURN INVALID PUSH1 0x80 PUSH1 0x40 MSTORE CALLVALUE DUP1 ISZERO PUSH2 0x10 JUMPI PUSH1 0x0 DUP1 REVERT JUMPDEST POP PUSH1 0x4 CALLDATASIZE LT PUSH2 0x41 JUMPI PUSH1 0x0 CALLDATALOAD PUSH1 0xE0 SHR DUP1 PUSH4 0x91F05DD5 EQ PUSH2 0x46 JUMPI DUP1 PUSH4 0xA7269EFC EQ PUSH2 0x62 JUMPI DUP1 PUSH4 0xA8A4189D EQ PUSH2 0x7E JUMPI JUMPDEST PUSH1 0x0 DUP1 REVERT JUMPDEST PUSH2 0x60 PUSH1 0x4 DUP1 CALLDATASIZE SUB DUP2 ADD SWAP1 PUSH2 0x5B SWAP2 SWAP1 PUSH2 0x223 JUMP JUMPDEST PUSH2 0x9A JUMP JUMPDEST STOP JUMPDEST PUSH2 0x7C PUSH1 0x4 DUP1 CALLDATASIZE SUB DUP2 ADD SWAP1 PUSH2 0x77 SWAP2 SWAP1 PUSH2 0x223 JUMP JUMPDEST PUSH2 0x10C JUMP JUMPDEST STOP JUMPDEST PUSH2 0x98 PUSH1 0x4 DUP1 CALLDATASIZE SUB DUP2 ADD SWAP1 PUSH2 0x93 SWAP2 SWAP1 PUSH2 0x223 JUMP JUMPDEST PUSH2 0x18E JUMP JUMPDEST STOP JUMPDEST PUSH1 0x0 PUSH1 0x1 SWAP1 POP JUMPDEST DUP2 PUSH1 0x3 SIGNEXTEND DUP2 PUSH1 0x3 SIGNEXTEND SGT PUSH2 0x107 JUMPI PUSH3 0xF4240 PUSH1 0x0 DUP1 DUP6 PUSH20 0xFFFFFFFFFFFFFFFFFFFFFFFFFFFFFFFFFFFFFFFF AND PUSH20 0xFFFFFFFFFFFFFFFFFFFFFFFFFFFFFFFFFFFFFFFF AND DUP2 MSTORE PUSH1 0x20 ADD SWAP1 DUP2 MSTORE PUSH1 0x20 ADD PUSH1 0x0 KECCAK256 DUP2 SWAP1 SSTORE POP DUP1 DUP1 PUSH2 0xFF SWAP1 PUSH2 0x2FE JUMP JUMPDEST SWAP2 POP POP PUSH2 0xA1 JUMP JUMPDEST POP POP POP JUMP JUMPDEST PUSH1 0x0 PUSH1 0x1 SWAP1 POP JUMPDEST DUP2 PUSH1 0x3 SIGNEXTEND DUP2 PUSH1 0x3 SIGNEXTEND SGT PUSH2 0x189 JUMPI PUSH1 0x1 PUSH1 0x0 DUP1 DUP6 PUSH20 0xFFFFFFFFFFFFFFFFFFFFFFFFFFFFFFFFFFFFFFFF AND PUSH20 0xFFFFFFFFFFFFFFFFFFFFFFFFFFFFFFFFFFFFFFFF AND DUP2 MSTORE PUSH1 0x20 ADD SWAP1 DUP2 MSTORE PUSH1 0x20 ADD PUSH1 0x0 KECCAK256 PUSH1 0x0 DUP3 DUP3 SLOAD PUSH2 0x16F SWAP2 SWAP1 PUSH2 0x25F JUMP JUMPDEST SWAP3 POP POP DUP2 SWAP1 SSTORE POP DUP1 DUP1 PUSH2 0x181 SWAP1 PUSH2 0x2FE JUMP JUMPDEST SWAP2 POP POP PUSH2 0x113 JUMP JUMPDEST POP POP POP JUMP JUMPDEST PUSH1 0x0 PUSH1 0x1 SWAP1 POP JUMPDEST DUP2 PUSH1 0x3 SIGNEXTEND DUP2 PUSH1 0x3 SIGNEXTEND SGT PUSH2 0x1F4 JUMPI PUSH1 0x0 DUP1 DUP5 PUSH20 0xFFFFFFFFFFFFFFFFFFFFFFFFFFFFFFFFFFFFFFFF AND PUSH20 0xFFFFFFFFFFFFFFFFFFFFFFFFFFFFFFFFFFFFFFFF AND DUP2 MSTORE PUSH1 0x20 ADD SWAP1 DUP2 MSTORE PUSH1 0x20 ADD PUSH1 0x0 KECCAK256 POP DUP1 DUP1 PUSH2 0x1EC SWAP1 PUSH2 0x2FE JUMP JUMPDEST SWAP2 POP POP PUSH2 0x195 JUMP JUMPDEST POP POP POP JUMP JUMPDEST PUSH1 0x0 DUP2 CALLDATALOAD SWAP1 POP PUSH2 0x208 DUP2 PUSH2 0x35A JUMP JUMPDEST SWAP3 SWAP2 POP POP JUMP JUMPDEST PUSH1 0x0 DUP2 CALLDATALOAD SWAP1 POP PUSH2 0x21D DUP2 PUSH2 0x371 JUMP JUMPDEST SWAP3 SWAP2 POP POP JUMP JUMPDEST PUSH1 0x0 DUP1 PUSH1 0x40 DUP4 DUP6 SUB SLT ISZERO PUSH2 0x236 JUMPI PUSH1 0x0 DUP1 REVERT JUMPDEST PUSH1 0x0 PUSH2 0x244 DUP6 DUP3 DUP7 ADD PUSH2 0x1F9 JUMP JUMPDEST SWAP3 POP POP PUSH1 0x20 PUSH2 0x255 DUP6 DUP3 DUP7 ADD PUSH2 0x20E JUMP JUMPDEST SWAP2 POP POP SWAP3 POP SWAP3 SWAP1 POP JUMP JUMPDEST PUSH1 0x0 PUSH2 0x26A DUP3 PUSH2 0x2F4 JUMP JUMPDEST SWAP2 POP PUSH2 0x275 DUP4 PUSH2 0x2F4 JUMP JUMPDEST SWAP3 POP DUP3 PUSH32 0xFFFFFFFFFFFFFFFFFFFFFFFFFFFFFFFFFFFFFFFFFFFFFFFFFFFFFFFFFFFFFFFF SUB DUP3 GT ISZERO PUSH2 0x2AA JUMPI PUSH2 0x2A9 PUSH2 0x32B JUMP JUMPDEST JUMPDEST DUP3 DUP3 ADD SWAP1 POP SWAP3 SWAP2 POP POP JUMP JUMPDEST PUSH1 0x0 PUSH2 0x2C0 DUP3 PUSH2 0x2D4 JUMP JUMPDEST SWAP1 POP SWAP2 SWAP1 POP JUMP JUMPDEST PUSH1 0x0 DUP2 PUSH1 0x3 SIGNEXTEND SWAP1 POP SWAP2 SWAP1 POP JUMP JUMPDEST PUSH1 0x0 PUSH20 0xFFFFFFFFFFFFFFFFFFFFFFFFFFFFFFFFFFFFFFFF DUP3 AND SWAP1 POP SWAP2 SWAP1 POP JUMP JUMPDEST PUSH1 0x0 DUP2 SWAP1 POP SWAP2 SWAP1 POP JUMP JUMPDEST PUSH1 0x0 PUSH2 0x309 DUP3 PUSH2 0x2C7 JUMP JUMPDEST SWAP2 POP PUSH4 0x7FFFFFFF DUP3 EQ ISZERO PUSH2 0x320 JUMPI PUSH2 0x31F PUSH2 0x32B JUMP JUMPDEST JUMPDEST PUSH1 0x1 DUP3 ADD SWAP1 POP SWAP2 SWAP1 POP JUMP JUMPDEST PUSH32 0x4E487B7100000000000000000000000000000000000000000000000000000000 PUSH1 0x0 MSTORE PUSH1 0x11 PUSH1 0x4 MSTORE PUSH1 0x24 PUSH1 0x0 REVERT JUMPDEST PUSH2 0x363 DUP2 PUSH2 0x2B5 JUMP JUMPDEST DUP2 EQ PUSH2 0x36E JUMPI PUSH1 0x0 DUP1 REVERT JUMPDEST POP JUMP JUMPDEST PUSH2 0x37A DUP2 PUSH2 0x2C7 JUMP JUMPDEST DUP2 EQ PUSH2 0x385 JUMPI PUSH1 0x0 DUP1 REVERT JUMPDEST POP JUMP INVALID LOG2 PUSH5 0x6970667358 0x22 SLT KECCAK256 XOR DELEGATECALL SGT PUSH1 0xE7 TIMESTAMP 0x4F DUP7 CALLVALUE 0xC3 JUMPI 0xD9 SWAP3 MSTORE REVERT PUSH10 0xC1DE9A98FA64D0A6DA24 EXP 0xC2 BALANCE 0xAF LOG2 MSTORE8 PUSH5 0x736F6C6343 STOP ADDMOD ADD STOP CALLER "},"methodIdentifiers":{"read(address,int32)":"a8a4189d","readWrite(address,int32)":"a7269efc","write(address,int32)":"91f05dd5"}}}}}