{"contracts/flipper.sol":{"flipper":{"abi":[{"inputs":[{"internalType":"bool","name":"initvalue","type":"bool"}],"stateMutability":"nonpayable","type":"constructor"},{"inputs":[],"name":"flip","outputs":[],"stateMutability":"nonpayable","type":"function"},{"inputs":[],"name":"get","outputs":[{"internalType":"bool","name":"","type":"bool"}],"stateMutability":"view","type":"function"}],"evm":{"bytecode":{"linkReferences":{},"object":"608060405234801561001057600080fd5b506040516101c13803806101c183398181016040528101906100329190610066565b806000806101000a81548160ff021916908315150217905550506100b2565b6000815190506100608161009b565b92915050565b60006020828403121561007857600080fd5b600061008684828501610051565b91505092915050565b60008115159050919050565b6100a48161008f565b81146100af57600080fd5b50565b610100806100c16000396000f3fe6080604052348015600f57600080fd5b506004361060325760003560e01c80636d4ce63c146037578063cde4efa9146051575b600080fd5b603d6059565b6040516048919060a5565b60405180910390f35b6057606f565b005b60008060009054906101000a900460ff16905090565b60008054906101000a900460ff16156000806101000a81548160ff021916908315150217905550565b609f8160be565b82525050565b600060208201905060b860008301846098565b92915050565b6000811515905091905056fea2646970667358221220839b7127425cadc978fdae85c236303c56c2ce2e9ea2c4048fe9488c6187b87964736f6c63430008010033","opcodes":"PUSH1 0x80 PUSH1 0x40 MSTORE CALLVALUE DUP1 ISZERO PUSH2 0x10 JUMPI PUSH1 0x0 DUP1 REVERT JUMPDEST POP PUSH1 0x40 MLOAD PUSH2 0x1C1 CODESIZE SUB DUP1 PUSH2 0x1C1 DUP4 CODECOPY DUP2 DUP2 ADD PUSH1 0x40 MSTORE DUP2 ADD SWAP1 PUSH2 0x32 SWAP2 SWAP1 PUSH2 0x66 JUMP JUMPDEST DUP1 PUSH1 0x0 DUP1 PUSH2 0x100 EXP DUP2 SLOAD DUP2 PUSH1 0xFF MUL NOT AND SWAP1 DUP4 ISZERO ISZERO MUL OR SWAP1 SSTORE POP POP PUSH2 0xB2 JUMP JUMPDEST PUSH1 0x0 DUP2 MLOAD SWAP1 POP PUSH2 0x60 DUP2 PUSH2 0x9B JUMP JUMPDEST SWAP3 SWAP2 POP POP JUMP JUMPDEST PUSH1 0x0 PUSH1 0x20 DUP3 DUP5 SUB SLT ISZERO PUSH2 0x78 JUMPI PUSH1 0x0 DUP1 REVERT JUMPDEST PUSH1 0x0 PUSH2 0x86 DUP5 DUP3 DUP6 ADD PUSH2 0x51 JUMP JUMPDEST SWAP2 POP POP SWAP3 SWAP2 POP POP JUMP JUMPDEST PUSH1 0x0 DUP2 ISZERO ISZERO SWAP1 POP SWAP2 SWAP1 POP JUMP JUMPDEST PUSH2 0xA4 DUP2 PUSH2 0x8F JUMP JUMPDEST DUP2 EQ PUSH2 0xAF JUMPI PUSH1 0x0 DUP1 REVERT JUMPDEST POP JUMP JUMPDEST PUSH2 0x100 DUP1 PUSH2 0xC1 PUSH1 0x0 CODECOPY PUSH1 0x0 RETURN INVALID PUSH1 0x80 PUSH1 0x40 MSTORE CALLVALUE DUP1 ISZERO PUSH1 0xF JUMPI PUSH1 0x0 DUP1 REVERT JUMPDEST POP PUSH1 0x4 CALLDATASIZE LT PUSH1 0x32 JUMPI PUSH1 0x0 CALLDATALOAD PUSH1 0xE0 SHR DUP1 PUSH4 0x6D4CE63C EQ PUSH1 0x37 JUMPI DUP1 PUSH4 0xCDE4EFA9 EQ PUSH1 0x51 JUMPI JUMPDEST PUSH1 0x0 DUP1 REVERT JUMPDEST PUSH1 0x3D PUSH1 0x59 JUMP JUMPDEST PUSH1 0x40 MLOAD PUSH1 0x48 SWAP2 SWAP1 PUSH1 0xA5 JUMP JUMPDEST PUSH1 0x40 MLOAD DUP1 SWAP2 SUB SWAP1 RETURN JUMPDEST PUSH1 0x57 PUSH1 0x6F JUMP JUMPDEST STOP JUMPDEST PUSH1 0x0 DUP1 PUSH1 0x0 SWAP1 SLOAD SWAP1 PUSH2 0x100 EXP SWAP1 DIV PUSH1 0xFF AND SWAP1 POP SWAP1 JUMP JUMPDEST PUSH1 0x0 DUP1 SLOAD SWAP1 PUSH2 0x100 EXP SWAP1 DIV PUSH1 0xFF AND ISZERO PUSH1 0x0 DUP1 PUSH2 0x100 EXP DUP2 SLOAD DUP2 PUSH1 0xFF MUL NOT AND SWAP1 DUP4 ISZERO ISZERO MUL OR SWAP1 SSTORE POP JUMP JUMPDEST PUSH1 0x9F DUP2 PUSH1 0xBE JUMP JUMPDEST DUP3 MSTORE POP POP JUMP JUMPDEST PUSH1 0x0 PUSH1 0x20 DUP3 ADD SWAP1 POP PUSH1 0xB8 PUSH1 0x0 DUP4 ADD DUP5 PUSH1 0x98 JUMP JUMPDEST SWAP3 SWAP2 POP POP JUMP JUMPDEST PUSH1 0x0 DUP2 ISZERO ISZERO SWAP1 POP SWAP2 SWAP1 POP JUMP INVALID LOG2 PUSH5 0x6970667358 0x22 SLT KECCAK256 DUP4 SWAP12 PUSH18 0x27425CADC978FDAE85C236303C56C2CE2E9E LOG2 0xC4 DIV DUP16 0xE9 0x48 DUP13 PUSH2 0x87B8 PUSH26 0x64736F6C63430008010033000000000000000000000000000000 "},"methodIdentifiers":{"flip()":"cde4efa9","get()":"6d4ce63c"}}}}}