{
  "_format": "hh-sol-artifact-1",
  "contractName": "BenchERC721",
  "sourceName": "contracts/BenchERC721.sol",
  "abi": [
    {
      "inputs": [],
      "stateMutability": "nonpayable",
      "type": "constructor"
    },
    {
      "anonymous": false,
      "inputs": [
        {
          "indexed": true,
          "internalType": "address",
          "name": "owner",
          "type": "address"
        },
        {
          "indexed": true,
          "internalType": "address",
          "name": "approved",
          "type": "address"
        },
        {
          "indexed": true,
          "internalType": "uint256",
          "name": "tokenId",
          "type": "uint256"
        }
      ],
      "name": "Approval",
      "type": "event"
    },
    {
      "anonymous": false,
      "inputs": [
        {
          "indexed": true,
          "internalType": "address",
          "name": "owner",
          "type": "address"
        },
        {
          "indexed": true,
          "internalType": "address",
          "name": "operator",
          "type": "address"
        },
        {
          "indexed": false,
          "internalType": "bool",
          "name": "approved",
          "type": "bool"
        }
      ],
      "name": "ApprovalForAll",
      "type": "event"
    },
    {
      "anonymous": false,
      "inputs": [
        {
          "indexed": true,
          "internalType": "address",
          "name": "from",
          "type": "address"
        },
        {
          "indexed": true,
          "internalType": "address",
          "name": "to",
          "type": "address"
        },
        {
          "indexed": true,
          "internalType": "uint256",
          "name": "tokenId",
          "type": "uint256"
        }
      ],
      "name": "Transfer",
      "type": "event"
    },
    {
      "inputs": [
        {
          "internalType": "address",
          "name": "to",
          "type": "address"
        },
        {
          "internalType": "uint256",
          "name": "tokenId",
          "type": "uint256"
        }
      ],
      "name": "approve",
      "outputs": [],
      "stateMutability": "nonpayable",
      "type": "function"
    },
    {
      "inputs": [
        {
          "internalType": "address",
          "name": "owner",
          "type": "address"
        }
      ],
      "name": "balanceOf",
      "outputs": [
        {
          "internalType": "uint256",
          "name": "",
          "type": "uint256"
        }
      ],
      "stateMutability": "view",
      "type": "function"
    },
    {
      "inputs": [
        {
          "internalType": "uint256",
          "name": "tokenId",
          "type": "uint256"
        }
      ],
      "name": "getApproved",
      "outputs": [
        {
          "internalType": "address",
          "name": "",
          "type": "address"
        }
      ],
      "stateMutability": "view",
      "type": "function"
    },
    {
      "inputs": [
        {
          "internalType": "address",
          "name": "owner",
          "type": "address"
        },
        {
          "internalType": "address",
          "name": "operator",
          "type": "address"
        }
      ],
      "name": "isApprovedForAll",
      "outputs": [
        {
          "internalType": "bool",
          "name": "",
          "type": "bool"
        }
      ],
      "stateMutability": "view",
      "type": "function"
    },
    {
      "inputs": [
        {
          "internalType": "uint256",
          "name": "tokenId",
          "type": "uint256"
        }
      ],
      "name": "mint",
      "outputs": [],
      "stateMutability": "nonpayable",
      "type": "function"
    },
    {
      "inputs": [],
      "name": "name",
      "outputs": [
        {
          "internalType": "string",
          "name": "",
          "type": "string"
        }
      ],
      "stateMutability": "view",
      "type": "function"
    },
    {
      "inputs": [
        {
          "internalType": "uint256",
          "name": "tokenId",
          "type": "uint256"
        }
      ],
      "name": "ownerOf",
      "outputs": [
        {
          "internalType": "address",
          "name": "",
          "type": "address"
        }
      ],
      "stateMutability": "view",
      "type": "function"
    },
    {
      "inputs": [
        {
          "internalType": "address",
          "name": "from",
          "type": "address"
        },
        {
          "internalType": "address",
          "name": "to",
          "type": "address"
        },
        {
          "internalType": "uint256",
          "name": "tokenId",
          "type": "uint256"
        }
      ],
      "name": "safeTransferFrom",
      "outputs": [],
      "stateMutability": "nonpayable",
      "type": "function"
    },
    {
      "inputs": [
        {
          "internalType": "address",
          "name": "from",
          "type": "address"
        },
        {
          "internalType": "address",
          "name": "to",
          "type": "address"
        },
        {
          "internalType": "uint256",
          "name": "tokenId",
          "type": "uint256"
        },
        {
          "internalType": "bytes",
          "name": "data",
          "type": "bytes"
        }
      ],
      "name": "safeTransferFrom",
      "outputs": [],
      "stateMutability": "nonpayable",
      "type": "function"
    },
    {
      "inputs": [
        {
          "internalType": "address",
          "name": "operator",
          "type": "address"
        },
        {
          "internalType": "bool",
          "name": "approved",
          "type": "bool"
        }
      ],
      "name": "setApprovalForAll",
      "outputs": [],
      "stateMutability": "nonpayable",
      "type": "function"
    },
    {
      "inputs": [
        {
          "internalType": "bytes4",
          "name": "interfaceId",
          "type": "bytes4"
        }
      ],
      "name": "supportsInterface",
      "outputs": [
        {
          "internalType": "bool",
          "name": "",
          "type": "bool"
        }
      ],
      "stateMutability": "view",
      "type": "function"
    },
    {
      "inputs": [],
      "name": "symbol",
      "outputs": [
        {
          "internalType": "string",
          "name": "",
          "type": "string"
        }
      ],
      "stateMutability": "view",
      "type": "function"
    },
    {
      "inputs": [
        {
          "internalType": "uint256",
          "name": "tokenId",
          "type": "uint256"
        }
      ],
      "name": "tokenURI",
      "outputs": [
        {
          "internalType": "string",
          "name": "",
          "type": "string"
        }
      ],
      "stateMutability": "view",
      "type": "function"
    },
    {
      "inputs": [
        {
          "internalType": "address",
          "name": "from",
          "type": "address"
        },
        {
          "internalType": "address",
          "name": "to",
          "type": "address"
        },
        {
          "internalType": "uint256",
          "name": "tokenId",
          "type": "uint256"
        }
      ],
      "name": "transferFrom",
      "outputs": [],
      "stateMutability": "nonpayable",
      "type": "function"
    }
  ],
  "bytecode": "0x60806040523480156200001157600080fd5b506040518060400160405280600b81526020017f42656e63684552433732310000000000000000000000000000000000000000008152506040518060400160405280600581526020017f43414e4654000000000000000000000000000000000000000000000000000000815250816000908051906020019062000096929190620000b8565b508060019080519060200190620000af929190620000b8565b505050620001cd565b828054620000c69062000168565b90600052602060002090601f016020900481019282620000ea576000855562000136565b82601f106200010557805160ff191683800117855562000136565b8280016001018555821562000136579182015b828111156200013557825182559160200191906001019062000118565b5b50905062000145919062000149565b5090565b5b80821115620001645760008160009055506001016200014a565b5090565b600060028204905060018216806200018157607f821691505b602082108114156200019857620001976200019e565b5b50919050565b7f4e487b7100000000000000000000000000000000000000000000000000000000600052602260045260246000fd5b6125b980620001dd6000396000f3fe608060405234801561001057600080fd5b50600436106100ea5760003560e01c806370a082311161008c578063a22cb46511610066578063a22cb4651461025b578063b88d4fde14610277578063c87b56dd14610293578063e985e9c5146102c3576100ea565b806370a08231146101f157806395d89b4114610221578063a0712d681461023f576100ea565b8063095ea7b3116100c8578063095ea7b31461016d57806323b872dd1461018957806342842e0e146101a55780636352211e146101c1576100ea565b806301ffc9a7146100ef57806306fdde031461011f578063081812fc1461013d575b600080fd5b61010960048036038101906101049190611b2a565b6102f3565b6040516101169190611e81565b60405180910390f35b6101276103d5565b6040516101349190611e9c565b60405180910390f35b61015760048036038101906101529190611b7c565b610467565b6040516101649190611e1a565b60405180910390f35b61018760048036038101906101829190611aee565b6104ad565b005b6101a3600480360381019061019e91906119e8565b6105c5565b005b6101bf60048036038101906101ba91906119e8565b610625565b005b6101db60048036038101906101d69190611b7c565b610645565b6040516101e89190611e1a565b60405180910390f35b61020b60048036038101906102069190611983565b6106cc565b604051610218919061201e565b60405180910390f35b610229610784565b6040516102369190611e9c565b60405180910390f35b61025960048036038101906102549190611b7c565b610816565b005b61027560048036038101906102709190611ab2565b610823565b005b610291600480360381019061028c9190611a37565b610839565b005b6102ad60048036038101906102a89190611b7c565b61089b565b6040516102ba9190611e9c565b60405180910390f35b6102dd60048036038101906102d891906119ac565b610903565b6040516102ea9190611e81565b60405180910390f35b60007f80ac58cd000000000000000000000000000000000000000000000000000000007bffffffffffffffffffffffffffffffffffffffffffffffffffffffff1916827bffffffffffffffffffffffffffffffffffffffffffffffffffffffff191614806103be57507f5b5e139f000000000000000000000000000000000000000000000000000000007bffffffffffffffffffffffffffffffffffffffffffffffffffffffff1916827bffffffffffffffffffffffffffffffffffffffffffffffffffffffff1916145b806103ce57506103cd82610997565b5b9050919050565b6060600080546103e490612188565b80601f016020809104026020016040519081016040528092919081815260200182805461041090612188565b801561045d5780601f106104325761010080835404028352916020019161045d565b820191906000526020600020905b81548152906001019060200180831161044057829003601f168201915b5050505050905090565b600061047282610a01565b6004600083815260200190815260200160002060009054906101000a900473ffffffffffffffffffffffffffffffffffffffff169050919050565b60006104b882610645565b90508073ffffffffffffffffffffffffffffffffffffffff168373ffffffffffffffffffffffffffffffffffffffff161415610529576040517f08c379a000000000000000000000000000000000000000000000000000000000815260040161052090611fde565b60405180910390fd5b8073ffffffffffffffffffffffffffffffffffffffff16610548610a4c565b73ffffffffffffffffffffffffffffffffffffffff161480610577575061057681610571610a4c565b610903565b5b6105b6576040517f08c379a00000000000000000000000000000000000000000000000000000000081526004016105ad90611ffe565b60405180910390fd5b6105c08383610a54565b505050565b6105d66105d0610a4c565b82610b0d565b610615576040517f08c379a000000000000000000000000000000000000000000000000000000000815260040161060c90611ebe565b60405180910390fd5b610620838383610ba2565b505050565b61064083838360405180602001604052806000815250610839565b505050565b60008061065183610e9c565b9050600073ffffffffffffffffffffffffffffffffffffffff168173ffffffffffffffffffffffffffffffffffffffff1614156106c3576040517f08c379a00000000000000000000000000000000000000000000000000000000081526004016106ba90611fbe565b60405180910390fd5b80915050919050565b60008073ffffffffffffffffffffffffffffffffffffffff168273ffffffffffffffffffffffffffffffffffffffff16141561073d576040517f08c379a000000000000000000000000000000000000000000000000000000000815260040161073490611f7e565b60405180910390fd5b600360008373ffffffffffffffffffffffffffffffffffffffff1673ffffffffffffffffffffffffffffffffffffffff168152602001908152602001600020549050919050565b60606001805461079390612188565b80601f01602080910402602001604051908101604052809291908181526020018280546107bf90612188565b801561080c5780601f106107e15761010080835404028352916020019161080c565b820191906000526020600020905b8154815290600101906020018083116107ef57829003601f168201915b5050505050905090565b6108203382610ed9565b50565b61083561082e610a4c565b8383610ef7565b5050565b61084a610844610a4c565b83610b0d565b610889576040517f08c379a000000000000000000000000000000000000000000000000000000000815260040161088090611ebe565b60405180910390fd5b61089584848484611064565b50505050565b60606108a682610a01565b60006108b06110c0565b905060008151116108d057604051806020016040528060008152506108fb565b806108da846110d7565b6040516020016108eb929190611df6565b6040516020818303038152906040525b915050919050565b6000600560008473ffffffffffffffffffffffffffffffffffffffff1673ffffffffffffffffffffffffffffffffffffffff16815260200190815260200160002060008373ffffffffffffffffffffffffffffffffffffffff1673ffffffffffffffffffffffffffffffffffffffff16815260200190815260200160002060009054906101000a900460ff16905092915050565b60007f01ffc9a7000000000000000000000000000000000000000000000000000000007bffffffffffffffffffffffffffffffffffffffffffffffffffffffff1916827bffffffffffffffffffffffffffffffffffffffffffffffffffffffff1916149050919050565b610a0a816111fb565b610a49576040517f08c379a0000000000000000000000000000000000000000000000000000000008152600401610a4090611fbe565b60405180910390fd5b50565b600033905090565b816004600083815260200190815260200160002060006101000a81548173ffffffffffffffffffffffffffffffffffffffff021916908373ffffffffffffffffffffffffffffffffffffffff160217905550808273ffffffffffffffffffffffffffffffffffffffff16610ac783610645565b73ffffffffffffffffffffffffffffffffffffffff167f8c5be1e5ebec7d5bd14f71427d1e84f3dd0314c0f7b2291e5b200ac8c7c3b92560405160405180910390a45050565b600080610b1983610645565b90508073ffffffffffffffffffffffffffffffffffffffff168473ffffffffffffffffffffffffffffffffffffffff161480610b5b5750610b5a8185610903565b5b80610b9957508373ffffffffffffffffffffffffffffffffffffffff16610b8184610467565b73ffffffffffffffffffffffffffffffffffffffff16145b91505092915050565b8273ffffffffffffffffffffffffffffffffffffffff16610bc282610645565b73ffffffffffffffffffffffffffffffffffffffff1614610c18576040517f08c379a0000000000000000000000000000000000000000000000000000000008152600401610c0f90611efe565b60405180910390fd5b600073ffffffffffffffffffffffffffffffffffffffff168273ffffffffffffffffffffffffffffffffffffffff161415610c88576040517f08c379a0000000000000000000000000000000000000000000000000000000008152600401610c7f90611f3e565b60405180910390fd5b610c95838383600161123c565b8273ffffffffffffffffffffffffffffffffffffffff16610cb582610645565b73ffffffffffffffffffffffffffffffffffffffff1614610d0b576040517f08c379a0000000000000000000000000000000000000000000000000000000008152600401610d0290611efe565b60405180910390fd5b6004600082815260200190815260200160002060006101000a81549073ffffffffffffffffffffffffffffffffffffffff02191690556001600360008573ffffffffffffffffffffffffffffffffffffffff1673ffffffffffffffffffffffffffffffffffffffff168152602001908152602001600020600082825403925050819055506001600360008473ffffffffffffffffffffffffffffffffffffffff1673ffffffffffffffffffffffffffffffffffffffff16815260200190815260200160002060008282540192505081905550816002600083815260200190815260200160002060006101000a81548173ffffffffffffffffffffffffffffffffffffffff021916908373ffffffffffffffffffffffffffffffffffffffff160217905550808273ffffffffffffffffffffffffffffffffffffffff168473ffffffffffffffffffffffffffffffffffffffff167fddf252ad1be2c89b69c2b068fc378daa952ba7f163c4a11628f55a4df523b3ef60405160405180910390a4610e978383836001611242565b505050565b60006002600083815260200190815260200160002060009054906101000a900473ffffffffffffffffffffffffffffffffffffffff169050919050565b610ef3828260405180602001604052806000815250611248565b5050565b8173ffffffffffffffffffffffffffffffffffffffff168373ffffffffffffffffffffffffffffffffffffffff161415610f66576040517f08c379a0000000000000000000000000000000000000000000000000000000008152600401610f5d90611f5e565b60405180910390fd5b80600560008573ffffffffffffffffffffffffffffffffffffffff1673ffffffffffffffffffffffffffffffffffffffff16815260200190815260200160002060008473ffffffffffffffffffffffffffffffffffffffff1673ffffffffffffffffffffffffffffffffffffffff16815260200190815260200160002060006101000a81548160ff0219169083151502179055508173ffffffffffffffffffffffffffffffffffffffff168373ffffffffffffffffffffffffffffffffffffffff167f17307eab39ab6107e8899845ad3d59bd9653f200f220920489ca2b5937696c31836040516110579190611e81565b60405180910390a3505050565b61106f848484610ba2565b61107b848484846112a3565b6110ba576040517f08c379a00000000000000000000000000000000000000000000000000000000081526004016110b190611ede565b60405180910390fd5b50505050565b606060405180602001604052806000815250905090565b6060600060016110e68461143a565b01905060008167ffffffffffffffff81111561112b577f4e487b7100000000000000000000000000000000000000000000000000000000600052604160045260246000fd5b6040519080825280601f01601f19166020018201604052801561115d5781602001600182028036833780820191505090505b509050600082602001820190505b6001156111f0578080600190039150507f3031323334353637383961626364656600000000000000000000000000000000600a86061a8153600a85816111da577f4e487b7100000000000000000000000000000000000000000000000000000000600052601260045260246000fd5b04945060008514156111eb576111f0565b61116b565b819350505050919050565b60008073ffffffffffffffffffffffffffffffffffffffff1661121d83610e9c565b73ffffffffffffffffffffffffffffffffffffffff1614159050919050565b50505050565b50505050565b6112528383611671565b61125f60008484846112a3565b61129e576040517f08c379a000000000000000000000000000000000000000000000000000000000815260040161129590611ede565b60405180910390fd5b505050565b60006112c48473ffffffffffffffffffffffffffffffffffffffff1661188f565b1561142d578373ffffffffffffffffffffffffffffffffffffffff1663150b7a026112ed610a4c565b8786866040518563ffffffff1660e01b815260040161130f9493929190611e35565b602060405180830381600087803b15801561132957600080fd5b505af192505050801561135a57506040513d601f19601f820116820180604052508101906113579190611b53565b60015b6113dd573d806000811461138a576040519150601f19603f3d011682016040523d82523d6000602084013e61138f565b606091505b506000815114156113d5576040517f08c379a00000000000000000000000000000000000000000000000000000000081526004016113cc90611ede565b60405180910390fd5b805181602001fd5b63150b7a0260e01b7bffffffffffffffffffffffffffffffffffffffffffffffffffffffff1916817bffffffffffffffffffffffffffffffffffffffffffffffffffffffff191614915050611432565b600190505b949350505050565b600080600090507a184f03e93ff9f4daa797ed6e38ed64bf6a1f01000000000000000083106114be577a184f03e93ff9f4daa797ed6e38ed64bf6a1f01000000000000000083816114b4577f4e487b7100000000000000000000000000000000000000000000000000000000600052601260045260246000fd5b0492506040810190505b6d04ee2d6d415b85acef81000000008310611521576d04ee2d6d415b85acef81000000008381611517577f4e487b7100000000000000000000000000000000000000000000000000000000600052601260045260246000fd5b0492506020810190505b662386f26fc10000831061157657662386f26fc10000838161156c577f4e487b7100000000000000000000000000000000000000000000000000000000600052601260045260246000fd5b0492506010810190505b6305f5e10083106115c5576305f5e10083816115bb577f4e487b7100000000000000000000000000000000000000000000000000000000600052601260045260246000fd5b0492506008810190505b6127108310611610576127108381611606577f4e487b7100000000000000000000000000000000000000000000000000000000600052601260045260246000fd5b0492506004810190505b60648310611659576064838161164f577f4e487b7100000000000000000000000000000000000000000000000000000000600052601260045260246000fd5b0492506002810190505b600a8310611668576001810190505b80915050919050565b600073ffffffffffffffffffffffffffffffffffffffff168273ffffffffffffffffffffffffffffffffffffffff1614156116e1576040517f08c379a00000000000000000000000000000000000000000000000000000000081526004016116d890611f9e565b60405180910390fd5b6116ea816111fb565b1561172a576040517f08c379a000000000000000000000000000000000000000000000000000000000815260040161172190611f1e565b60405180910390fd5b61173860008383600161123c565b611741816111fb565b15611781576040517f08c379a000000000000000000000000000000000000000000000000000000000815260040161177890611f1e565b60405180910390fd5b6001600360008473ffffffffffffffffffffffffffffffffffffffff1673ffffffffffffffffffffffffffffffffffffffff16815260200190815260200160002060008282540192505081905550816002600083815260200190815260200160002060006101000a81548173ffffffffffffffffffffffffffffffffffffffff021916908373ffffffffffffffffffffffffffffffffffffffff160217905550808273ffffffffffffffffffffffffffffffffffffffff16600073ffffffffffffffffffffffffffffffffffffffff167fddf252ad1be2c89b69c2b068fc378daa952ba7f163c4a11628f55a4df523b3ef60405160405180910390a461188b600083836001611242565b5050565b6000808273ffffffffffffffffffffffffffffffffffffffff163b119050919050565b60006118c56118c08461205e565b612039565b9050828152602081018484840111156118dd57600080fd5b6118e8848285612146565b509392505050565b6000813590506118ff81612527565b92915050565b6000813590506119148161253e565b92915050565b60008135905061192981612555565b92915050565b60008151905061193e81612555565b92915050565b600082601f83011261195557600080fd5b81356119658482602086016118b2565b91505092915050565b60008135905061197d8161256c565b92915050565b60006020828403121561199557600080fd5b60006119a3848285016118f0565b91505092915050565b600080604083850312156119bf57600080fd5b60006119cd858286016118f0565b92505060206119de858286016118f0565b9150509250929050565b6000806000606084860312156119fd57600080fd5b6000611a0b868287016118f0565b9350506020611a1c868287016118f0565b9250506040611a2d8682870161196e565b9150509250925092565b60008060008060808587031215611a4d57600080fd5b6000611a5b878288016118f0565b9450506020611a6c878288016118f0565b9350506040611a7d8782880161196e565b925050606085013567ffffffffffffffff811115611a9a57600080fd5b611aa687828801611944565b91505092959194509250565b60008060408385031215611ac557600080fd5b6000611ad3858286016118f0565b9250506020611ae485828601611905565b9150509250929050565b60008060408385031215611b0157600080fd5b6000611b0f858286016118f0565b9250506020611b208582860161196e565b9150509250929050565b600060208284031215611b3c57600080fd5b6000611b4a8482850161191a565b91505092915050565b600060208284031215611b6557600080fd5b6000611b738482850161192f565b91505092915050565b600060208284031215611b8e57600080fd5b6000611b9c8482850161196e565b91505092915050565b611bae816120d2565b82525050565b611bbd816120e4565b82525050565b6000611bce8261208f565b611bd881856120a5565b9350611be8818560208601612155565b611bf181612249565b840191505092915050565b6000611c078261209a565b611c1181856120b6565b9350611c21818560208601612155565b611c2a81612249565b840191505092915050565b6000611c408261209a565b611c4a81856120c7565b9350611c5a818560208601612155565b80840191505092915050565b6000611c73602d836120b6565b9150611c7e8261225a565b604082019050919050565b6000611c966032836120b6565b9150611ca1826122a9565b604082019050919050565b6000611cb96025836120b6565b9150611cc4826122f8565b604082019050919050565b6000611cdc601c836120b6565b9150611ce782612347565b602082019050919050565b6000611cff6024836120b6565b9150611d0a82612370565b604082019050919050565b6000611d226019836120b6565b9150611d2d826123bf565b602082019050919050565b6000611d456029836120b6565b9150611d50826123e8565b604082019050919050565b6000611d686020836120b6565b9150611d7382612437565b602082019050919050565b6000611d8b6018836120b6565b9150611d9682612460565b602082019050919050565b6000611dae6021836120b6565b9150611db982612489565b604082019050919050565b6000611dd1603d836120b6565b9150611ddc826124d8565b604082019050919050565b611df08161213c565b82525050565b6000611e028285611c35565b9150611e0e8284611c35565b91508190509392505050565b6000602082019050611e2f6000830184611ba5565b92915050565b6000608082019050611e4a6000830187611ba5565b611e576020830186611ba5565b611e646040830185611de7565b8181036060830152611e768184611bc3565b905095945050505050565b6000602082019050611e966000830184611bb4565b92915050565b60006020820190508181036000830152611eb68184611bfc565b905092915050565b60006020820190508181036000830152611ed781611c66565b9050919050565b60006020820190508181036000830152611ef781611c89565b9050919050565b60006020820190508181036000830152611f1781611cac565b9050919050565b60006020820190508181036000830152611f3781611ccf565b9050919050565b60006020820190508181036000830152611f5781611cf2565b9050919050565b60006020820190508181036000830152611f7781611d15565b9050919050565b60006020820190508181036000830152611f9781611d38565b9050919050565b60006020820190508181036000830152611fb781611d5b565b9050919050565b60006020820190508181036000830152611fd781611d7e565b9050919050565b60006020820190508181036000830152611ff781611da1565b9050919050565b6000602082019050818103600083015261201781611dc4565b9050919050565b60006020820190506120336000830184611de7565b92915050565b6000612043612054565b905061204f82826121ba565b919050565b6000604051905090565b600067ffffffffffffffff8211156120795761207861221a565b5b61208282612249565b9050602081019050919050565b600081519050919050565b600081519050919050565b600082825260208201905092915050565b600082825260208201905092915050565b600081905092915050565b60006120dd8261211c565b9050919050565b60008115159050919050565b60007fffffffff0000000000000000000000000000000000000000000000000000000082169050919050565b600073ffffffffffffffffffffffffffffffffffffffff82169050919050565b6000819050919050565b82818337600083830152505050565b60005b83811015612173578082015181840152602081019050612158565b83811115612182576000848401525b50505050565b600060028204905060018216806121a057607f821691505b602082108114156121b4576121b36121eb565b5b50919050565b6121c382612249565b810181811067ffffffffffffffff821117156121e2576121e161221a565b5b80604052505050565b7f4e487b7100000000000000000000000000000000000000000000000000000000600052602260045260246000fd5b7f4e487b7100000000000000000000000000000000000000000000000000000000600052604160045260246000fd5b6000601f19601f8301169050919050565b7f4552433732313a2063616c6c6572206973206e6f7420746f6b656e206f776e6560008201527f72206f7220617070726f76656400000000000000000000000000000000000000602082015250565b7f4552433732313a207472616e7366657220746f206e6f6e20455243373231526560008201527f63656976657220696d706c656d656e7465720000000000000000000000000000602082015250565b7f4552433732313a207472616e736665722066726f6d20696e636f72726563742060008201527f6f776e6572000000000000000000000000000000000000000000000000000000602082015250565b7f4552433732313a20746f6b656e20616c7265616479206d696e74656400000000600082015250565b7f4552433732313a207472616e7366657220746f20746865207a65726f2061646460008201527f7265737300000000000000000000000000000000000000000000000000000000602082015250565b7f4552433732313a20617070726f766520746f2063616c6c657200000000000000600082015250565b7f4552433732313a2061646472657373207a65726f206973206e6f74206120766160008201527f6c6964206f776e65720000000000000000000000000000000000000000000000602082015250565b7f4552433732313a206d696e7420746f20746865207a65726f2061646472657373600082015250565b7f4552433732313a20696e76616c696420746f6b656e2049440000000000000000600082015250565b7f4552433732313a20617070726f76616c20746f2063757272656e74206f776e6560008201527f7200000000000000000000000000000000000000000000000000000000000000602082015250565b7f4552433732313a20617070726f76652063616c6c6572206973206e6f7420746f60008201527f6b656e206f776e6572206f7220617070726f76656420666f7220616c6c000000602082015250565b612530816120d2565b811461253b57600080fd5b50565b612547816120e4565b811461255257600080fd5b50565b61255e816120f0565b811461256957600080fd5b50565b6125758161213c565b811461258057600080fd5b5056fea264697066735822122026a784bf1f8446d77ab06e869e0ec40ddf4442ff9b21a8c0273a072b90b7554364736f6c63430008010033",
  "linkReferences": {},
  "deployedLinkReferences": {}
}