{
  "_format": "hh-sol-artifact-1",
  "contractName": "incrementer",
  "sourceName": "contracts/incrementer.sol",
  "abi": [
    {
      "inputs": [
        {
          "internalType": "uint32",
          "name": "initvalue",
          "type": "uint32"
        }
      ],
      "stateMutability": "nonpayable",
      "type": "constructor"
    },
    {
      "inputs": [],
      "name": "get",
      "outputs": [
        {
          "internalType": "uint32",
          "name": "",
          "type": "uint32"
        }
      ],
      "stateMutability": "view",
      "type": "function"
    },
    {
      "inputs": [
        {
          "internalType": "uint32",
          "name": "by",
          "type": "uint32"
        }
      ],
      "name": "inc",
      "outputs": [],
      "stateMutability": "nonpayable",
      "type": "function"
    }
  ],
  "bytecode": "0x608060405234801561001057600080fd5b506040516102c93803806102c98339818101604052810190610032919061006d565b806000806101000a81548163ffffffff021916908363ffffffff160217905550506100bd565b600081519050610067816100a6565b92915050565b60006020828403121561007f57600080fd5b600061008d84828501610058565b91505092915050565b600063ffffffff82169050919050565b6100af81610096565b81146100ba57600080fd5b50565b6101fd806100cc6000396000f3fe608060405234801561001057600080fd5b50600436106100365760003560e01c80636d4ce63c1461003b578063dd5d521114610059575b600080fd5b610043610075565b604051610050919061011c565b60405180910390f35b610073600480360381019061006e91906100e4565b61008e565b005b60008060009054906101000a900463ffffffff16905090565b806000808282829054906101000a900463ffffffff166100ae9190610137565b92506101000a81548163ffffffff021916908363ffffffff16021790555050565b6000813590506100de816101b0565b92915050565b6000602082840312156100f657600080fd5b6000610104848285016100cf565b91505092915050565b61011681610171565b82525050565b6000602082019050610131600083018461010d565b92915050565b600061014282610171565b915061014d83610171565b92508263ffffffff0382111561016657610165610181565b5b828201905092915050565b600063ffffffff82169050919050565b7f4e487b7100000000000000000000000000000000000000000000000000000000600052601160045260246000fd5b6101b981610171565b81146101c457600080fd5b5056fea264697066735822122060097c0a9d7bdc18ea8694ba137807985328dd8a3229367d23b991605a78d06f64736f6c63430008010033",
  "linkReferences": {},
  "deployedLinkReferences": {}
}